:020000040800F2
:1000000000500020150F0008D50D0008D70D00087E
:10001000D90D0008DB0D0008DD0D00080000000010
:10002000000000000000000000000000DF0D0008DC
:10003000E10D000800000000E30D0008E50D0008D8
:100040005D0F00085D0F00085D0F00085D0F0008E0
:100050005D0F00085D0F00085D0F00085D0F0008D0
:100060005D0F00085D0F00085D0F00085D0F0008C0
:100070005D0F00085D0F00085D0F00085D0F0008B0
:100080005D0F00085D0F00085D0F00085D0F0008A0
:100090005D0F00085D0F00085D0F00085D0F000890
:1000A0005D0F00085D0F00085D0F00085D0F000880
:1000B0005D0F00085D0F00085D0F00085D0F000870
:1000C0005D0F00085D0F00085D0F00085D0F000860
:1000D0005D0F00085D0F00085D0F00085D0F000850
:1000E0005D0F00085D0F00085D0F000800000000B4
:1000F0000000000000000000000000000000000000
:0C01000000000000000000005FF808F1A3
:1001100010B5054C237833B9044B13B10448AFF341
:1001200000800123237010BD70000020000000003B
:10013000A839000808B5034B1BB103490348AFF3C6
:10014000008008BD0000000074000020A8390008ED
:1001500081F0004102E000BF83F0004330B54FEA78
:1001600041044FEA430594EA050F08BF90EA020FE5
:100170001FBF54EA000C55EA020C7FEA645C7FEA78
:10018000655C00F0E2804FEA5454D4EB5555B8BF9B
:100190006D420CDD2C4480EA020281EA030382EA0C
:1001A000000083EA010180EA020281EA0303362D9E
:1001B00088BF30BD11F0004F4FEA01314FF4801C71
:1001C0004CEA113102D0404261EB410113F0004F83
:1001D0004FEA03334CEA133302D0524263EB43033A
:1001E00094EA050F00F0A780A4F10104D5F1200ED8
:1001F0000DDB02FA0EFC22FA05F2801841F1000133
:1002000003FA0EF2801843FA05F359410EE0A5F106
:1002100020050EF1200E012A03FA0EFC28BF4CF037
:10022000020C43FA05F3C01851EBE37101F00045ED
:1002300007D54FF0000EDCF1000C7EEB00006EEBFA
:100240000101B1F5801F1BD3B1F5001F0CD3490884
:100250005FEA30004FEA3C0C04F101044FEA4452DB
:1002600012F5800F80F09A80BCF1004F08BF5FEA62
:10027000500C50F1000041EB045141EA050130BD42
:100280005FEA4C0C404141EB0101013C28BFB1F554
:10029000801FE9D291F0000F04BF01460020B1FA9F
:1002A00081F308BF2033A3F10B03B3F120020CDA72
:1002B0000C3208DD02F1140CC2F10C0201FA0CF050
:1002C00021FA02F10CE002F11402D8BFC2F1200CB5
:1002D00001FA02F120FA0CFCDCBF41EA0C0190406B
:1002E000E41AA2BF01EB0451294330BD6FEA0404B4
:1002F0001F3C1CDA0C340EDC04F11404C4F120029F
:1003000020FA04F001FA02F340EA030021FA04F3B0
:1003100045EA030130BDC4F10C04C4F1200220FA07
:1003200002F001FA04F340EA0300294630BD21FA45
:1003300004F0294630BD94F0000F83F4801306BF0B
:1003400081F480110134013D4EE77FEA645C18BFFF
:100350007FEA655C29D094EA050F08BF90EA020F96
:1003600005D054EA000C04BF1946104630BD91EA8E
:10037000030F1EBF0021002030BD5FEA545C05D191
:100380004000494128BF41F0004130BD14F58004D0
:100390003CBF01F5801130BD01F0004545F0FE4144
:1003A00041F470014FF0000030BD7FEA645C1ABF79
:1003B000194610467FEA655C1CBF0B46024650EAB0
:1003C000013406BF52EA033591EA030F41F40021DC
:1003D00030BD00BF90F0000F04BF0021704730B562
:1003E0004FF4806404F132044FF000054FF0000137
:1003F00050E700BF90F0000F04BF0021704730B5F8
:100400004FF4806404F1320410F0004548BF4042CC
:100410004FF000013EE700BF42004FEAE2014FEA21
:1004200031014FEA02701FBF12F07F4393F07F4FFC
:1004300081F06051704732F07F4208BF704793F0FF
:100440007F4F04BF41F40021704730B54FF4607412
:1004500001F0004521F000411CE700BF50EA010215
:1004600008BF704730B54FF000050AE050EA0102BE
:1004700008BF704730B511F0004502D5404261EB2E
:1004800041014FF4806404F132045FEA915C3FF46F
:10049000D8AE4FF003025FEADC0C18BF03325FEA0C
:1004A000DC0C18BF033202EBDC02C2F1200300FABD
:1004B00003FC20FA02F001FA03FE40EA0E0021FAE2
:1004C00002F11444BDE600BF70B54FF0FF0C4CF4D0
:1004D000E06C1CEA11541DBF1CEA135594EA0C0F82
:1004E00095EA0C0F00F0DEF82C4481EA030621EABD
:1004F0004C5123EA4C5350EA013518BF52EA0335F8
:1005000041F4801143F4801338D0A0FB02CE4FF0A9
:100510000005E1FB02E506F00042E0FB03E54FF0D9
:100520000006E1FB03569CF0000F18BF4EF0010ED1
:10053000A4F1FF04B6F5007F64F5407404D25FEACD
:100540004E0E6D4146EB060642EAC62141EA555180
:100550004FEAC52040EA5E504FEACE2EB4F1FD0CC2
:1005600088BFBCF5E06F1ED8BEF1004F08BF5FEA40
:10057000500E50F1000041EB045170BD06F00046F2
:1005800046EA010140EA020081EA0301B4EB5C049F
:10059000C2BFD4EB0C0541EA045170BD41F4801197
:1005A0004FF0000E013C00F3AB8014F1360FDEBFBC
:1005B000002001F0004170BDC4F10004203C35DA98
:1005C0000C341BDC04F11404C4F1200500FA05F31B
:1005D00020FA04F001FA05F240EA020001F00042BC
:1005E00021F0004110EBD37021FA04F642EB060132
:1005F0005EEA430E08BF20EAD37070BDC4F10C045C
:10060000C4F1200500FA04F320FA05F001FA04F21F
:1006100040EA020001F0004110EBD37041F100010B
:100620005EEA430E08BF20EAD37070BDC4F1200516
:1006300000FA05F24EEA020E20FA04F301FA05F27E
:1006400043EA020321FA04F001F0004121FA04F226
:1006500020EA020000EBD3705EEA430E08BF20EAF6
:10066000D37070BD94F0000F0FD101F00046400030
:1006700041EB010111F4801F08BF013CF7D041EAB2
:10068000060195F0000F18BF704703F000465200B6
:1006900043EB030313F4801F08BF013DF7D043EA87
:1006A0000603704794EA0C0F0CEA135518BF95EA3D
:1006B0000C0F0CD050EA410618BF52EA4306D1D1C4
:1006C00081EA030101F000414FF0000070BD50EAE3
:1006D000410606BF1046194652EA430619D094EA6D
:1006E0000C0F02D150EA013613D195EA0C0F05D157
:1006F00052EA03361CBF104619460AD181EA0301AB
:1007000001F0004141F0FE4141F470014FF0000062
:1007100070BD41F0FE4141F4780170BD70B54FF0FD
:10072000FF0C4CF4E06C1CEA11541DBF1CEA13557D
:1007300094EA0C0F95EA0C0F00F0A7F8A4EB05045F
:1007400081EA030E52EA03354FEA013100F0888056
:100750004FEA03334FF0805545EA131343EA12631F
:100760004FEA022245EA111545EA10654FEA0026D4
:100770000EF000419D4208BF964244F1FD0404F58D
:10078000407402D25B084FEA3202B61A65EB0305E9
:100790005B084FEA32024FF480104FF4002CB6EBA6
:1007A000020E75EB030E22BFB61A754640EA0C0026
:1007B0005B084FEA3202B6EB020E75EB030E22BF66
:1007C000B61A754640EA5C005B084FEA3202B6EBA7
:1007D000020E75EB030E22BFB61A754640EA9C0066
:1007E0005B084FEA3202B6EB020E75EB030E22BF36
:1007F000B61A754640EADC0055EA060E18D04FEAF4
:10080000051545EA16754FEA06164FEAC30343EA93
:1008100052734FEAC2025FEA1C1CC0D111F4801F60
:100820000BD141EA00014FF000004FF0004CB6E759
:1008300011F4801F04BF01430020B4F1FD0C88BFF8
:10084000BCF5E06F3FF6AFAEB5EB030C04BFB6EB03
:10085000020C5FEA500C50F1000041EB045170BDF6
:100860000EF0004E4EEA113114EB5C04C2BFD4EB23
:100870000C0541EA045170BD41F480114FF0000EA7
:10088000013C90E645EA060E8DE60CEA135594EA23
:100890000C0F08BF95EA0C0F3FF43BAF94EA0C0F26
:1008A0000AD150EA01347FF434AF95EA0C0F7FF49B
:1008B00025AF104619462CE795EA0C0F06D152EAEF
:1008C00003353FF4FDAE1046194622E750EA4106D3
:1008D00018BF52EA43067FF4C5AE50EA41047FF4E4
:1008E0000DAF52EA43057FF4EBAE12E74FF0FF3C49
:1008F00006E000BF4FF0010C02E000BF4FF0010C1A
:100900004DF804CD4FEA410C7FEA6C5C4FEA430C92
:1009100018BF7FEA6C5C1BD001B050EA410C0CBFE1
:1009200052EA430C91EA030F02BF90EA020F002043
:10093000704710F1000F91EA030F58BF994208BFAA
:1009400090422CBFD8176FEAE37040F00100704767
:100950004FEA410C7FEA6C5C02D150EA013C07D1BE
:100960004FEA430C7FEA6C5CD6D152EA033CD3D009
:100970005DF8040B704700BF8446104662468C4603
:100980001946634600E000BF01B5FFF7B7FF002836
:1009900048BF10F1000F01BD4DF808EDFFF7F4FF5F
:1009A0000CBF012000205DF808FB00BF4DF808EDEA
:1009B000FFF7EAFF34BF012000205DF808FB00BF0D
:1009C0004DF808EDFFF7E0FF94BF012000205DF82F
:1009D00008FB00BF4DF808EDFFF7CEFF94BF0120E4
:1009E00000205DF808FB00BF4DF808EDFFF7C4FFDD
:1009F00034BF012000205DF808FB00BF4FEA410C26
:100A00007FEA6C5C02D150EA013C0AD14FEA430C08
:100A10007FEA6C5C02D152EA033C02D14FF0000045
:100A200070474FF0010070474A0011D212F50012D2
:100A300011D20DD56FF47873B3EB62520ED44FEA36
:100A4000C12343F0004343EA505323FA02F07047B6
:100A50004FF00000704750EA013002D14FF0FF30F4
:100A600070474FF000007047102230B589B00DEB91
:100A70000200002101F0A8FB1C4B1D4C9A69204686
:100A800042F020029A619A694FF4417102F020020B
:100A90000192019A9A69002542F004029A619A69CA
:100AA00002F004020292029A9A6942F008029A61E4
:100AB0009B69002203F008030393039B00F0DAFB19
:100AC0004FF441720123CDE904230223204604A9F7
:100AD000CDE9065300F0F4FA8023204604A9CDE9BD
:100AE0000435069500F0ECFA09B030BD0010024064
:100AF000000C0140202210B590B000210DEB020047
:100B000001F062FB0021142201A801F05DFB012429
:100B10004FF4803306A8CDE9064300F0B9FB014647
:100B200008B172B6FEE70F23CDE90300059001A8D6
:100B3000CDE9013400F06EFD08B172B6FEE710B0E9
:100B400010BD00002DE9F84F00F02EFAFFF7D2FF9C
:100B5000FFF78AFF00F092F96D4801F055FA6D48F1
:100B600001F052FA6C4801F0E7F9002302211A461D
:100B70006A4801F0E1F96A4801F046FA694801F073
:100B800043FA694A69496A4801F0D6F9694801F0AF
:100B90003BFA022000F05AFF00F0E8FF664801F03F
:100BA00033FA664801F030FA0024654D654EE1B233
:100BB0000846012200F062FF224601342146284601
:100BC00001F0BAF93368986801F0E0F84FF49670D4
:100BD00000F00EFA082CEAD15B4801F015FA4FF448
:100BE0007A7000F005FA594801F00EFA00F0BEFFE5
:100BF000534DE1B2A1F108000122C0B200F03EFF66
:100C00002246E11F284601F097F9336801349868BD
:100C100001F0BCF84FF4967000F0EAF9102CE8D11E
:100C2000494801F0F1F94FF47A7000F0E1F94848D1
:100C300001F0EAF9142400F099FF414DE1B2C1F14D
:100C400014000122C0B200F019FF2246C4F11501C0
:100C5000284601F071F93368013C986801F096F874
:100C60004FF4967000F0C4F90C2CE7D1364801F02F
:100C7000CBF94FF47A7000F0BBF90024354DDFF862
:100C8000D88000F07FFFB0F1FF3F8146334F20D185
:100C9000D8F80000002101303A78C8F8000000F0D0
:100CA00037FF3B789BB15B00DBB2D8F800102C48D3
:100CB0003B7001F041F93368986801F067F804214E
:100CC000284800F0DCFAC82000F092F9D9E70123A7
:100CD000EBE7C0F1080B58464FF0010AFFF78AFB1B
:100CE0000AFA0BFA02460B465FFA8AFA20462946B0
:100CF00001F04EFF87F800A0FFF796FEC9F1090743
:100D000000217843524600F003FF49461648D0E7D9
:100D1000C0390008C4390008E1390008F739000873
:100D2000043A0008233A0008333A00083C3A000825
:100D3000483A0008533A0008713A0008843A00081B
:100D40009B3A000820000020C2390008AE3A000893
:100D5000C53A0008000024400400002000000020E4
:100D6000E03A0008000C0140E63A000807B54FF0F1
:100D7000FF330190012201A9034800F0D4FD01983E
:100D800003B05DF804FB00BF9000002072B6FEE7E0
:100D90000E4B82B09A6942F001029A619A6902F0A0
:100DA00001020092009ADA6942F08052DA61DB694E
:100DB000074A03F080530193019B536823F0E063DB
:100DC00043F00073536002B0704700BF0010024050
:100DD00000000140FEE7FEE7FEE7FEE7FEE77047A2
:100DE0007047704700F0F2B870B50D4614460E46D5
:100DF000731B9C4201DC204670BDAFF3008006F8F7
:100E0000010BF5E770B50D4614460E46731B9C4268
:100E100001DC204670BD16F8010BFFF7A7FFF5E7D0
:100E20004FF0FF3070474FF4005300204B60704785
:100E300001207047002070470B4A0346116810B527
:100E400009B90A491160106809490A4C0344091B91
:100E50008B4206D901F006FA0C2303604FF0FF30F5
:100E600010BD1360FCE700BF8C00002028020020AA
:100E700000500020000400007047000008B54FF447
:100E800016530A480A4AC0E9002300230C22C0E98D
:100E90000233C0E905230361C36100F011FD18B1FD
:100EA000BDE80840FFF772BF08BD00BF90000020FA
:100EB0000044004010B5044686B01022002102A86C
:100EC00001F082F92268114B9A421DD103F5E633F5
:100ED000DA690F4842F40032DA61DA6902A902F4F1
:100EE00000320092009A9A6942F004029A619B696A
:100EF000042203F004030193019B1223CDE9022392
:100F00000323059300F0DCF806B010BD0044004058
:100F100000080140FFF7B0FF0B480C490C4A0023C2
:100F200002E0D458C4500433C4188C42F9D3094A9F
:100F3000094C002301E013600432A242FBD301F00C
:100F400097F9FFF7FFFD70470000002070000020B8
:100F5000A83B00087000002028020020FEE70000E7
:100F600038B50E4B05461A784FF47A73B3FBF2F39B
:100F70000B4A1068B0FBF3F000F08EF8044658B945
:100F80000F2D09D8024629464FF0FF3000F054F8E3
:100F90002046044B1D6038BD0120FCE70C000020FA
:100FA0000800002010000020074A08B5136803203D
:100FB00043F01003136000F02DF80F20FFF7D0FF6F
:100FC000FFF7E6FE002008BD00200240034A044B64
:100FD00011681B780B441360704700BFD8000020D5
:100FE0000C000020014B1868704700BFD80000209B
:100FF00038B50446FFF7F6FF0546631C1EBF044BD9
:101000001B78E418FFF7EEFF431BA342FAD338BD69
:101010000C00002007490302CA6803F4E06322F4CD
:10102000E0621204120C134343F0BF6343F4003335
:10103000CB60704700ED00E0154B30B5DC68C4F3C1
:101040000224C4F10703251D042B28BF0423062D09
:101050004FF0FF3594BF0024033C05FA03F321EA67
:101060000303A54022EA0502A340002843EA020345
:10107000ACBF00F16040074A4FEA0313DBB2ABBFDD
:1010800000F5614000F00F0080F80033135430BDCC
:1010900000ED00E014ED00E00138B0F1807F0BD2EC
:1010A0004FF0E023F021054A586182F82310002018
:1010B000072298611A6170470120704700ED00E037
:1010C0002DE9F74F00244FF00F0E2646DFF884C1BC
:1010D000614B00F104080A6832FA06F502D103B048
:1010E000BDE8F08F012505FA06F702EA070537EAA1
:1010F000020276D14A68032A07D8013A022A00F28E
:101100008380DFE802F091969C00122A00F0948020
:1011100069D8112A00F08A80FF2D94BF8146C1460C
:101120004FEA8602D9F8007088BF203A0EFA02FA18
:1011300027EA0A0704FA02F21743C9F80070D1F847
:10114000049019F0805F4CD0DCF8182026F00307DB
:1011500042F00102CCF81820DCF8182007F1804793
:1011600002F00102019207F5803706F0030A019AA6
:101170004FEA8A0ABA680EFA0AFB22EA0B0B374AD0
:10118000904260D002F5806290425ED002F58062AB
:1011900090425CD002F58062904214BF0422032288
:1011A00002FA0AF242EA0B02BA609A6819F4801F46
:1011B00014BF2A43AA439A60DA6819F4001F14BFC7
:1011C0002A43AA43DA605A6819F4003F14BF2A433D
:1011D000AA435A601A6819F4803F14BF2A43AA43ED
:1011E0001A60013677E7DFF878904A450CD014D8BA
:1011F000A9F580194A4507D009F570294A4503D059
:10120000A9F580194A4587D18A68D2B1012A4FF0E1
:1012100008040CBF076147617EE7DFF848904A4544
:10122000F2D009F58039EDE7CC6875E7CC68043475
:1012300072E7CC6808346FE7CC680C346CE70024A4
:101240006AE7042468E70022AAE70122A8E702224D
:10125000A6E700BF00100240000401400008014062
:1012600000002210000031108368194214BF0120D1
:10127000002070470AB1016170470904FBE7C368A9
:1012800001EA030221EA030141EA024101617047D8
:101290002DE9F341054638B30368DB0710D42B680A
:1012A0009F075ED42B68190700F195802B685A07B9
:1012B00000F1C180EB69002B40F02C81002029E077
:1012C000904C636803F00C03042B07D0636803F0B1
:1012D0000C03082B0AD16368DE0307D523689C033F
:1012E000DDD56B68002BDAD1012013E06B68B3F514
:1012F000803F12D1236843F480332360FFF772FEEE
:10130000064623689803CAD4FFF76CFE801B642846
:10131000F7D9032002B0BDE8F0819BB9236823F41C
:1013200080332360236823F480232360FFF75AFE71
:10133000064623689903B2D5FFF754FE801B642844
:10134000F7D9E6E7B3F5A02F236803D143F4802350
:101350002360CFE723F480332360236823F48023C2
:10136000CBE7684C636813F00C0F07D0636803F099
:101370000C03082B10D16368DA030DD423689B0794
:1013800002D52B69012BAFD123686A6923F0F803DA
:1013900043EAC203236085E72A695B4B6AB10122F5
:1013A0001A60FFF71FFE064623689F07ECD4FFF77D
:1013B00019FE801B0228F7D9ABE71A60FFF712FE6F
:1013C0000646236898077FF56DAFFFF70BFE801B7D
:1013D0000228F6D99DE7AA694A4E4B4BE2B1012299
:1013E000C3F88024FFF7FEFD0446736A9B070DD502
:1013F0004FF4FA52454B1B68B3FBF2F3019300BF65
:10140000019B5A1E0192002BF9D14FE7FFF7EAFD2D
:10141000001B0228E9D97CE7C3F88024FFF7E2FD2E
:101420000446736A9F077FF541AFFFF7DBFD001BA2
:101430000228F6D96DE7334CE369D80024D401279C
:10144000E36943F08053E361E36903F08053009361
:10145000009B2F4E3368D90518D5EB68012B26D198
:10146000236A43F001032362FFF7BCFD41F2883891
:101470000646236A9B073FD5002F3FF41BAFE36965
:1014800023F08053E36115E70027E2E7336843F474
:1014900080733360FFF7A6FD80463368DA05DCD43D
:1014A000FFF7A0FDA0EB08006428F6D931E7ABB93F
:1014B000236A41F2883823F001032362236A23F070
:1014C00004032362FFF78EFD0646236A9807D3D5EF
:1014D000FFF788FD801B4045F7D91AE7052B236AE3
:1014E00003D143F004032362BAE723F0010323622C
:1014F000236A23F00403B6E7FFF774FD801B404521
:10150000B7D906E700100240000042420800002060
:10151000007000402A4C626802F00C02082A3ED09B
:101520000022022B274B1A662CD1FFF75BFD0646E3
:101530002368990120D42B6AB3F5803F05D16268F6
:10154000A96822F400320A436260696A62680B4348
:1015500022F474121343012263601A4B1A66FFF7D8
:1015600041FD054623689A013FF5A8AEFFF73AFD15
:10157000401B0228F6D9CCE6FFF734FD801B022879
:10158000D6D9C6E6FFF72EFD054623689B017FF5F9
:1015900095AEFFF727FD401B0228F6D9B9E6012BCF
:1015A0003FF4A2AE60682B6A00F480329A427FF466
:1015B0009BAE6B6A00F47010C01A18BF0120A9E638
:1015C00000100240000042420D4A536803F00C0133
:1015D000082912D10B48C3F38341DB03405C09D5D2
:1015E0005368094AC3F340435043084AD35CB0FBF5
:1015F000F3F07047064B584370470348704700BFED
:1016000000100240383B000800127A00363B000808
:1016100000093D002DE9F0410D46044610B90120B6
:10162000BDE8F081444A136803F007038B4228D3D6
:1016300021688E0730D4CA0743D43F4A136803F0A9
:101640000703AB4265D822683C4D12F0040F6CD101
:10165000130706D56B68226923F4605343EAC2037B
:101660006B60FFF7B1FF6B68354AC3F30313D35CBC
:10167000D840344B1860344B1868FFF771FC0020D9
:10168000CEE7136823F007030B431360136803F0DE
:1016900007038B42C3D1CBE7284B11F0040F1EBFC9
:1016A0005A6842F4E0625A60080742BF5A6842F43E
:1016B00060525A605A68A06822F0F00202435A60F1
:1016C000B9E762681D4E012A33681AD113F4003F4E
:1016D000A5D0736841F2883823F003031343736085
:1016E000FFF780FC07467368626803F00C03B3EBF6
:1016F000820FA2D0FFF776FCC01B4045F3D9032030
:101700008EE7022A02D113F0007FE1E713F0020F07
:10171000DEE7136823F007032B431360136803F01D
:101720000703AB427FF47BAF8DE76B68E16823F47E
:10173000E0630B436B608BE7002002400010024027
:10174000263B00080800002010000020044B054A3A
:101750005B68C3F30223D35C034A1068D840704728
:10176000001002401E3B000808000020044B054A00
:101770005B68C3F3C223D35C034A1068D840704748
:10178000001002401E3B000808000020026802F121
:101790000C0353E8003F23F490730C3242E800310D
:1017A00002680029F2D102F1140353E8003F23F04C
:1017B000010302F1140C4CE800310029F3D1036B52
:1017C000012B0BD102F10C0353E8003F23F010036F
:1017D00002F10C0C4CE800310029F3D1202380F8F1
:1017E000423000230363704710B504460368C168A4
:1017F0001A6922F440520A431A6182680069D96862
:101800000243606921F4B05121F00C0102430A4304
:10181000DA605A69A16922F440720A435A610E4A99
:10182000934215D1FFF7A2FF192343436268206852
:101830009200B3FBF2F36422B3FBF2F102FB11332B
:101840001B013233B3FBF2F303EB0113836010BDD2
:10185000FFF77CFFE8E700BF00380140F7B5054619
:101860000C4617461E462A68136834EA030301D162
:10187000002021E0701CF7D0FFF7B4FBC01B8642AC
:101880001CD3DEB12B68DA685107ECD5802CEAD086
:10189000402CE8D01A681207E5D5002401941A6894
:1018A000284601925B680193019BFFF76FFF0823B5
:1018B00001206B6485F8404003B0F0BD0320FBE7D6
:1018C00010B5044668B390F8413003F0FF021BB92D
:1018D00080F84020FFF7EEFA2423226884F8413094
:1018E000D368204623F40053D360FFF77DFF2368BD
:1018F00000201A6922F490421A615A6922F02202E9
:101900005A615A6942F008025A61DA6842F4005298
:10191000DA602023606484F8413084F842306063E8
:1019200010BD0120FCE72DE9F843984690F84130BE
:101930000446202B0E4617463FD100293FD0002AEF
:101940003DD021230025456480F84130FFF74AFB54
:10195000A3688146B3F5805FA784E78403D1236938
:101960000BB935461E46E38C9BB253B943464A46F3
:1019700040212046FFF772FF202350B984F8413000
:101980000AE043464A4680212046FFF767FF28B118
:101990002023032084F84130BDE8F88322684EB943
:1019A00035F8023BC3F308035360E18C013989B277
:1019B000E184D8E716F8013BF6E70220ECE70120C6
:1019C000EAE700001FB54FF0030C0023802001213F
:1019D0008DE80B1069460348FFF772FB05B05DF810
:1019E00004FB00BF000C01401FB50023CDE901330B
:1019F00003938023694603480093FFF761FB05B01A
:101A00005DF804FB000C014070B504460825FFF7A3
:101A1000D9FF0D4E00224FF480710B48FFF72AFCCE
:101A200014F0010218BF012280213046FFF722FC8A
:101A300001224FF480713046FFF71CFC013D4FEA54
:101A40005404E7D170BD00BF000C014038B5044616
:101A5000094D00224FF400712846FFF70BFC44F0BB
:101A60008800FFF7D1FF2846BDE8384001224FF437
:101A70000071FFF7FFBB00BF000C0140F8B5044642
:101A80000F4616461F4D0220FFF7E0FF00224FF4DD
:101A900000712846FFF7EEFB60344420FFF7B4FFE7
:101AA0006400284601224FF40071FFF7E3FBE4B223
:101AB00000224FF400712846FFF7DCFB2046FFF7B9
:101AC000A3FF114BD85DFFF79FFF284601224FF47B
:101AD0000071FFF7CFFB00224FF400712846FFF79B
:101AE000C9FB601CC0B2FFF78FFF084B985DFFF782
:101AF0008BFF2846BDE8F84001224FF40071FFF744
:101B0000B9BB00BF000C01404A3B0008483B00083D
:101B10007FB500294FF0000118BF1025CDE9001155
:101B20000291039108BF0A25072102ABB0FBF5F42F
:101B300005FB14000DF80100C1F1070042FA00F0A6
:101B400000F00100585401392046EFD26D461E4680
:101B500000242046013416F8012B15F8011BE4B2CD
:101B6000FFF78CFF082CF4D104B070BD10B5002431
:101B7000E0B2002215210134FFF780FF082CF7D1D5
:101B800010BD00002DE9F84300224FF400712A48EF
:101B9000FFF770FB4220FFF737FF0426FFF724FF13
:101BA00000244FF00109DFF8908000252F464FF404
:101BB000807140460022FFF75DFB80214046FFF721
:101BC00053FB18B109FA05F33B43DFB201224FF48E
:101BD000807140460135FFF74DFB082DE7D1FA072C
:101BE00041BF331F09FA03F32343DCB2FB0644BFB2
:101BF00009FA06F3234306F1010648BFDCB2082EBA
:101C0000D3D1FFF7DFFE01224FF400710A48FFF73E
:101C100031FB74B10023184644FA03F202F00102CA
:101C20005A430133082B40EA0200F5D10130BDE8E8
:101C3000F8834FF0FF30FAE7000C0140B1F90C20B7
:101C4000F8B5160705460C4654D44B68002B02DC49
:101C50000B6C002B48DDE66A002E45D0002312F401
:101C600080522F68216A2B6030D0626DA38959079A
:101C700005D56368D21A636B0BB1236CD21A0023AB
:101C80002846E66A216AB047431CA38906D1296821
:101C90001D292BD8284ACA40D60727D500226260C2
:101CA0002269D904226004D5421C01D12B6803B9F2
:101CB0006065616B2F60B9B104F14403994202D0B1
:101CC000284600F0FDFA002363630DE00123284657
:101CD000B0470246501CC9D12B68002BC6D01D2B23
:101CE00001D0162B1DD12F60002021E043F04003CE
:101CF0001BB21AE00F69002FF6D0930718BF00231C
:101D00000E6808BF4B69F61B0F608B60002EEBDD81
:101D100033463A462846216AD4F828C0E0470028CE
:101D200007DCB4F90C3043F040034FF0FF30A381DF
:101D3000F8BD0744361AE9E70100402038B50B69C1
:101D400005460C4613B90025284638BD18B1036A6C
:101D50000BB900F0BBF8B4F90C30002BF3D0626E75
:101D6000D00704D4990502D4A06D00F0A6FA284645
:101D70002146FFF763FF636E0546DA07E4D4A389C3
:101D80009B05E1D4A06D00F099FADDE7014620B98A
:101D9000044A0549054800F0B1B8054B1868FFF73B
:101DA000CDBF00BF140000203D1D0008240000200E
:101DB00020000020002310B50446C0E90033C0E92C
:101DC0000433836081814366C2818361194608229E
:101DD0005C3000F0F9F90D4B246263620C4BA36296
:101DE0000C4BE3620C4B23630C4B9C4206D003F17B
:101DF0006802944202D0D0339C4205D104F15800CD
:101E0000BDE8104000F058BA10BD00BF192000080E
:101E10003B2000087320000897200008DC00002009
:101E2000024A0349034800F069B800BF14000020CB
:101E30003D1D00082400002041680C4B10B599425C
:101E4000044601D0FFF77AFFA168094B994202D0FE
:101E50002046FFF773FFE168064B994204D0204605
:101E6000BDE81040FFF76ABF10BD00BFDC000020D6
:101E700044010020AC01002010B50B4B0B4C0C4A68
:101E800020461A6004210022FFF794FF04F1680045
:101E900001220921FFF78EFF04F1D0000222BDE8E4
:101EA00010401221FFF786BF14020020DC00002042
:101EB000211E0008014800F000BA00BF1D020020EA
:101EC000014800F0FBB900BF1D02002010B5044618
:101ED000FFF7F0FF236A1BB1BDE81040FFF7F0BF2A
:101EE000044B2362044B1B68002BF5D1FFF7C4FFA2
:101EF000F2E700BF391E0008140200202DE9F84364
:101F00000746884614460026D4E90195B9F101092F
:101F100005D52468002CF7D13046BDE8F883AB899D
:101F2000012B07D9B5F90E30013303D029463846C5
:101F3000C04706436835E9E70FB407B5064904AB67
:101F4000086853F8042B8168019300F0D7FA03B0B6
:101F50005DF804EB04B0704720000020036A70B500
:101F600005460E4684680BB9FFF7B0FF636EDB07CA
:101F700005D4A389980502D4A06D00F09EF9A38929
:101F8000190702D52369002B35D12146284600F0D8
:101F9000C5F880B34FF0FF35636EDA0705D4A38927
:101FA0009B0502D4A06D00F089F9284670BD002B76
:101FB00004DAA2699A4217DC0A2915D023685A1C50
:101FC00022601970A36816F8011F013BA360002965
:101FD000EDD1002B11DA22460A21284600F05FF8E5
:101FE0000130D7D00A25D7E72246284600F057F817
:101FF0000130E7D1CEE7013EE4E723685A1C2260B6
:102000000A221A70EEE70000024B01461868FFF73B
:10201000A5BF00BF2000002010B50C46B1F90E107E
:1020200000F0FCF80028ABBF636DA3891B1823F4F4
:102030008053ACBF6365A38110BD2DE9F0411F46FD
:102040008B890546DB050C46164605D50223002282
:10205000B1F90E1000F0D0F8A389324623F4805372
:10206000A38128463B46B4F90E10BDE8F04100F0CC
:10207000E7B810B50C46B1F90E1000F0BDF8431CDE
:10208000A38915BF606523F4805343F48053A38173
:1020900018BFA38110BDB1F90E1000F09DB8F8B5BE
:1020A0000E461446054618B1036A0BB9FFF70EFF3A
:1020B000A369A360A3891A0701D5236943B92146FF
:1020C000284600F02BF818B14FF0FF373846F8BD1E
:1020D00023682269F6B2981A63693746834205DCA1
:1020E00021462846FFF72AFE0028EDD1A368013BD0
:1020F000A36023685A1C22601E706269431C9A42C6
:1021000004D0A389DB07E1D50A2EDFD1214628467A
:10211000FFF714FE0028D9D0D6E7000038B5294BC8
:10212000054618680C4618B1036A0BB9FFF7CEFED6
:10213000B4F90C30190722D4DA0607D409222A6030
:1021400043F040034FF0FF30A38133E0580712D52E
:10215000616B41B104F14403994202D0284600F07A
:10216000AFF800236363A38923F02403A381002332
:10217000636023692360A38943F00803A381236973
:102180004BB9A38903F42073B3F5007F03D0214634
:10219000284600F080FCB4F90C3013F001020AD09C
:1021A0000022A26062695242A261226942B913F020
:1021B0008000C5D138BD990758BF6269A260F4E7B5
:1021C0000020F7E72000002003460244934200D19C
:1021D000704703F8011BF9E738B50023054D0446A5
:1021E00008462B60FEF71CFE431C02D12B6803B18E
:1021F000236038BD1802002038B504460846114651
:102200000022054D2A601A46FEF714FE431C02D137
:102210002B6803B1236038BD1802002038B504468E
:10222000084611460022054D2A601A46FEF7DCFDDD
:10223000431C02D12B6803B1236038BD1802002073
:1022400038B50446084611460022054D2A601A4654
:10225000FEF7D8FD431C02D12B6803B1236038BDC3
:1022600018020020014B1868704700BF20000020B2
:1022700070B500260C4D0D4C641BA410A64209D16C
:1022800001F092FB00260A4D0A4C641BA410A642E2
:1022900005D170BD55F8043B98470136EEE755F877
:1022A000043B98470136F2E7A03B0008A03B00083A
:1022B000A03B0008A43B000870477047704700002F
:1022C00038B50546002940D051F8043C0C1F002BBE
:1022D000B8BFE41800F0DEF81C4A136833B9636035
:1022E00014602846BDE8384000F0DAB8A34208D9A7
:1022F000206821188B4201BF19685B6809182160AA
:10230000EDE71A465B680BB1A342FAD91168501881
:10231000A0420BD120680144501883421160E0D1E3
:1023200018685B68084410605360DAE702D90C2330
:102330002B60D6E7206821188B4201BF19685B68C3
:102340000918216063605460CBE738BD2402002087
:1023500070B50F4E0C463168054611B900F0FAFB16
:1023600030602146284600F0F5FB431C03D14FF0B6
:10237000FF34204670BDC41C24F00304A042F8D0F2
:10238000211A284600F0E6FB0130F2D1EFE700BF4A
:10239000200200202DE9F843CD1C25F00305083567
:1023A0000C2D38BF0C25002D064601DBA94204D9AF
:1023B0000C2333600020BDE8F883DFF8D48000F000
:1023C00069F8D8F800301C4644BB29463046FFF770
:1023D000BFFF431C044658D1D8F800402746002FC1
:1023E00043D1002C4BD023683946304604EB030917
:1023F00000F0B0FB814542D1216830466D1A294674
:10240000FFF7A6FF01303AD023682B442360D8F8A9
:1024100000305A6862BBC8F800700FE02268521B97
:1024200020D40B2A17D96119A342256018BF59601F
:10243000636808BFC8F8001062514B60304600F076
:102440002FF804F10B00231D20F00700C21A1CBF57
:102450001B1AA350AFE76268A3420CBFC8F8002064
:102460005A60EBE723466468AEE73C467F68B6E710
:102470001A465B68A342FBD100235360DEE70C23BE
:102480003046336000F00CF894E70560D6E700BFF3
:10249000240200200148FFF710BF00BF1C020020EB
:1024A0000148FFF70BBF00BF1C020020936810B467
:1024B000013B002B936007DA9469A34201DB0A29F0
:1024C00002D110BCFFF7EBBD1368581C10601970E7
:1024D000084610BC7047F8B506460F461446D51896
:1024E000AC4201D1002007E03A46304614F8011B07
:1024F000FFF7DCFF431CF3D1F8BD00002DE9F04FDE
:102500000D461446984606469DB018B1036A0BB9AD
:10251000FFF7DCFC6B6ED90705D4AB899A0502D4B2
:10252000A86DFFF7CAFEAB891B0701D52B699BB9C4
:1025300029463046FFF7F2FD70B16B6EDC0704D51B
:102540004FF0FF301DB0BDE8F08FAB899805F7D490
:10255000A86DFFF7B3FEF3E70023099320238DF85E
:10256000293030234FF00109CDF80C80DFF8A88125
:102570008DF82A3023469A4613F8012B0AB1252AF2
:10258000F9D1BAEB040B0BD05B4622462946304604
:10259000FFF7A1FF013000F0A780099A5A44099281
:1025A0009AF80030002B00F09F8000234FF0FF329C
:1025B000CDE905230AF1010A049307938DF85330FE
:1025C0001A935446052214F8011B534800F0D2FA1E
:1025D000049AD8B9D10644BF20238DF8533013078D
:1025E00044BF2B238DF853309AF800302A2B15D096
:1025F000544600204FF00A0C079A214611F8013B7F
:10260000303B092B4BD9B0B1079214E0A0EB080383
:1026100009FA03F31343A2460493D2E7039B191D5F
:102620001B680391002BBBBF5B4242F00202079381
:102630000793B8BF049223782E2B0AD163782A2BF4
:1026400032D1039B02341A1D1B68039243EAE373E1
:102650000593DFF8C8A003225046217800F08AFADB
:1026600038B14022049BA0EB0A008240134301349E
:10267000049314F8011B062229488DF8281000F055
:1026800079FA00283FD0274B1BBB039B073323F06D
:10269000070308330393099B3B4409936AE70C46FD
:1026A00001200CFB0232A8E700234FF00A0C194668
:1026B00001340593204610F8012B303A092A03D93A
:1026C000002BC6D00591C4E7044601230CFB012171
:1026D000F0E703AB00932A463046134B04A9AFF34F
:1026E00000800746781CD6D16B6ED90705D4AB891C
:1026F0009A0502D4A86DFFF7E1FDAB895B063FF5B3
:102700001FAF09981EE703AB00932A463046064BDD
:1027100004A900F07DF8E4E7EB3A0008F13A00087C
:10272000F53A000800000000D72400082DE9F04722
:10273000164698468A680B6907469342B8BF134607
:10274000336091F843200C46DDF820900AB1013344
:1027500033602368990642BF3368023333602568CB
:1027600015F0060506D104F1190AE36832689B1AD0
:10277000AB422BDC94F843302268003B18BF0123A6
:10278000920630D44146384604F14302C84701302E
:1027900023D02368226903F00603042B14BF00250D
:1027A00033684FF0000608BFE56804F11A0408BF5B
:1027B000ED1A54F8123C08BF25EAE5759342C4BFF0
:1027C0009B1AED18B5421AD1002008E001235246A9
:1027D00041463846C847013003D14FF0FF30BDE8CD
:1027E000F0870135C1E73020E11881F843005A1C19
:1027F00094F845102244023382F84310C2E70123C3
:10280000224641463846C8470130E6D00136D9E76E
:102810002DE9FF470F7E9146782F80460C469A4659
:102820000C9E01F1430207D8622F0AD8002F00F056
:10283000D180582F00F0B88004F1420684F842702D
:102840003AE0A7F16303152BF6D801A151F823F064
:10285000A9280008BD2800083928000839280008E0
:102860003928000839280008BD2800083928000840
:10287000392800083928000839280008BB29000831
:10288000E7280008752900083928000839280008B9
:10289000DD29000839280008E72800083928000841
:1028A000392800087D29000833681A1D1B6832602A
:1028B00004F1420684F8423001239CE0336820682A
:1028C000191D3160060601D51D6803E04506FBD5DC
:1028D000B3F90050002D03DA2D236D4284F8433004
:1028E0000A23584811E021683368080653F8045B4E
:1028F00002D4490648BFADB26F2F336014BF0A231C
:1029000008235048002184F843106668002EA66012
:1029100005DB21682E4321F0040121604BD01646CF
:10292000B5FBF3F103FB1157C75D06F8017D2F4698
:10293000BB420D46F4D9082B0BD12368DF0708D51D
:10294000236961689942DEBF302306F8013C06F135
:10295000FF36921B22614B4621464046CDF800A02F
:1029600003AAFFF7E3FE01304AD14FF0FF3004B075
:10297000BDE8F087236843F02003236078273248BE
:1029800084F84570236831681F0651F8045B02D44F
:102990005F0648BFADB23160D90744BF43F02003A2
:1029A00023601DB11023ADE72648E9E7236823F033
:1029B00020032360F6E71646BDE733682568181D37
:1029C000616930602E061B6801D5196002E0680657
:1029D000FBD51980002316462361BCE7336800212C
:1029E0001A1D32601E686268304600F0C3F808B1F4
:1029F000801B606063682361002384F84330AAE78A
:102A00003246494640462369D0470130ADD023685D
:102A10009B0713D4E068039B9842B8BF1846A6E70B
:102A20000123324649464046D04701309DD001350A
:102A3000E36803995B1AAB42F2DCEBE7002504F193
:102A40001906F5E7FC3A00080D3B000870B50C4686
:102A5000B1F90E10154600291E4696B00CDAA3896E
:102A6000002113F0800F14BF40234FF48063002037
:102A700031602B6016B070BD6A4600F049F800283E
:102A8000EDDB019901F47041A1F500535942594120
:102A90004FF48063EBE78B89F7B59D0706460C463C
:102AA00007D504F14703236023610123636103B069
:102AB000F0BD6A4601ABFFF7C9FF009F05463946E6
:102AC0003046FFF767FC48B9B4F90C309A05EED4EC
:102AD00023F0030343F00203A381E2E7A389C4E9DF
:102AE000040743F08003A381019B20605BB1304663
:102AF000B4F90E1000F01EF828B1A38923F00303E7
:102B000043F00103A381A3891D43A581CFE7000002
:102B100038B50023064D0446084611462B60FEF7E3
:102B200082F9431C02D12B6803B1236038BD00BF7A
:102B30001802002038B50023054D044608462B60D6
:102B4000FEF776F9431C02D12B6803B1236038BD30
:102B50001802002038B50023054D044608462B60B6
:102B6000FEF76AF9431C02D12B6803B1236038BD1C
:102B700018020020034610B5C9B202449342184619
:102B800001D1002003E0047801338C42F6D110BD5E
:102B90002DE9F84314461D468046894600F068F842
:102BA000224606460F462B4620462946FDF726FFBD
:102BB000C8BB0022002340464946FDF7EDFEB8B1F0
:102BC0000022002320462946FDF7E6FE002841D1D9
:102BD0002046294600F044F828B30022002320466E
:102BE0002946FDF7E3FEF0B1FFF73CFB222319E095
:102BF0003046394600F034F8C8B94046494600F03E
:102C00002FF8A0B12046294600F02AF878B13246C4
:102C10003B4630463946FDF7F1FE0028E4D0FFF789
:102C200021FB2123036030463946BDE8F8830022AA
:102C3000002330463946FDF7AFFE0028F3D040466A
:102C4000494600F00DF80028EDD02046294600F056
:102C500007F8C8E70026014FE5E700BF0000F03F96
:102C600041F0004000F58010C00F704700000000E8
:102C70002DE9F04F91B0CDE900238B46DDE9001836
:102C800028F00047824657EA010012D153468BF4E0
:102C90000022DB1852419842934B934180F0CD843F
:102CA000DDE9002350465946FDF758FA11B0BDE85A
:102CB000F08F8E4B2BF000459D425E46D1460BD8DF
:102CC00005D1BAF1000FEBD1AF42E9D801E09F4244
:102CD00002D89F420FD171B106F1404606F5801629
:102CE00056EA0906DCD1DDE90032DB1882F4002265
:102CF00052419E42D0E7002E2B4642DA7C4A974250
:102D000056D8A2F15472974240F2A6843A15A2F224
:102D1000FF32142A18DDC2F1340221FA02F404FA57
:102D200002F28A4240F0988404F00104C4F10204E3
:102D3000002959D1B8F1804F49D152465B465046DF
:102D40005946FDF7C1FBB1E700294CD1C2F114028D
:102D500047FA02F404FA02F2BA4240F07A8404F02C
:102D60000104C4F10204634A9742E3D1B8F1000FB1
:102D700080F26B8452465B4600205E49FDF7CEFC34
:102D800094E7002481BB594A9742ECD105F14043B6
:102D900003F5801353EA090300F04F84564B9D421C
:102DA00008D9B8F1000F80F24C84002000217DE7A3
:102DB0000224E7E7B8F1000F4FF000004FF00001E8
:102DC000BFF674AFDDE9000303F100416EE74B4A43
:102DD000904509D1002E07DB5046594611B0BDE899
:102DE000F04F00F00FBD002450465946029300F00A
:102DF00069FC029BB9F1000F27D13E4A26F0404CF6
:102E0000944500D00DBBB8F1000F05DA02460B4621
:102E100000203849FDF782FC002EBFF647AF05F1D0
:102E2000404505F58015254308D102460B4610465E
:102E30001946FDF791F902460B469FE7012C7FF4F6
:102E400035AF01F10043194630E7F20F013A52EA7B
:102E5000040C02D152465B46E9E74FF00009013C01
:102E6000144314BFDFF88CA0DFF894A0B7F1844FAF
:102E7000CDE9029A40F20481224B9F421E4B13D9A6
:102E80009D4208D8B8F1000F08DA002011B0BDE863
:102E9000F04F00F0B1BCB8F1000FF6DC002011B02B
:102EA000BDE8F04F00F0A3BC9D420CD2DDE9020169
:102EB00000220023FDF77AFD003818BF0120B8F189
:102EC000000FECDAE2E70B4B00229D421CD9DDE952
:102ED00002010023FDF76AFD003818BF0120B8F198
:102EE000000FD3DCDBE700BF0000F0FF0000F07F45
:102EF000FFFF3F430000F03FFFFFEF3F0000E03FD8
:102F00000000F0BF0000F043594BFDF725F950A336
:102F1000D3E9002304460D46FDF7D6FA4EA3D3E9C4
:102F2000002306460F4620462946FDF7CDFA00222B
:102F300082468B46204629464E4BFDF7C5FA02468F
:102F40000B4647A1D1E90001FDF706F922462B46C1
:102F5000FDF7BAFA02460B4600204749FDF7FCF898
:102F60002246804689462B4620462946FDF7ACFA84
:102F700002460B4640464946FDF7A6FA3AA3D3E976
:102F80000023FDF7A1FA02460B4650465946FDF7CD
:102F9000E3F8002402460B4680468946304639460F
:102FA000FDF7DCF832463B4620460D46FDF7D4F8E7
:102FB00002460B4640464946FDF7CEF8DDE90023C0
:102FC000CDE9042300230493DDE904AB06460F4654
:102FD000DDE900015B465246FDF7BEF822462B466E
:102FE000FDF772FADDE9002380468946304639460E
:102FF000FDF76AFA02460B4640464946FDF7AEF831
:103000005B4606460F46524620462946FDF75CFAC7
:103010000B4602468046894630463946FDF79EF803
:10302000164B044699420D468B4640F3FD8101F153
:103030003F4303F5E003034300F0DC81DDE90201D7
:1030400000220023FDF7B2FC003818BF01201DE765
:10305000000000604715F73F44DF5DF80BAE543EBB
:10306000555555555555D53FFE822B654715F73FAC
:103070000000F03F0000D03F0000E03FFFFF8F4026
:10308000D34A3240002A40F07A81D24B0022FDF729
:103090001BFA6FF034040B461A15A2F2FF322244D9
:1030A0000A92CD4AC3F3130343F07F55934245F48C
:1030B000401508DDC94A934240F363810A9BA5F598
:1030C000801501330A930026F3000B93C44B294665
:1030D00003EBC603D3E900341A46CDE9083423468E
:1030E0008246FDF739F852462B46CDE90C01DDE961
:1030F0000801FDF733F802460B460020B949FDF7F9
:103100000DFB02460B46CDE90E01DDE90C01FDF792
:10311000DBF9CDE90601DDE90634CDE9043400230D
:103120000022AB466D1045F00055049305F50025CF
:10313000DDE9048905EB86434046494614461D46B1
:10314000FDF7C2F902460B46DDE90C01FDF704F874
:10315000DDE9082306460F4620462946FCF7FCFF1A
:1031600002460B4650465946FCF7F6FF42464B4690
:10317000FDF7AAF902460B4630463946FCF7ECFF4C
:10318000DDE90E23FDF7A0F9DDE90623CDE908010D
:1031900010461946FDF798F97BA3D3E900230446AE
:1031A0000D46FDF791F97AA3D3E90023FCF7D6FF8A
:1031B00022462B46FDF788F977A3D3E90023FCF7D5
:1031C000CDFF22462B46FDF77FF975A3D3E90023F7
:1031D000FCF7C4FF22462B46FDF776F972A3D3E92C
:1031E0000023FCF7BBFF22462B46FDF76DF970A3C9
:1031F000D3E90023FCF7B2FF224606460F462B46D2
:1032000020462946FDF760F902460B46304639460E
:10321000FDF75AF904460D46DDE9060142464B46E4
:10322000FCF79CFFDDE90823FDF74EF922462B460B
:10323000FCF794FF424682468B464B464046494641
:10324000FDF742F90022684B06460F46FCF786FF61
:1032500052465B46FCF782FF00240D4622460B4691
:1032600040464946FDF730F900228046894620460F
:1032700029465D4BFCF770FF32463B46FCF76CFF7E
:1032800002460B4650465946FCF766FFDDE9062329
:10329000FDF71AF9224606460F46DDE908012B46DE
:1032A000FDF712F902460B4630463946FCF756FF49
:1032B000002406460F4602460B4640464946FCF7A8
:1032C0004DFF3DA3D3E9002320460D46FDF7FCF852
:1032D00042464B46CDE9060120462946FCF73CFF15
:1032E00002460B4630463946FCF736FF34A3D3E995
:1032F0000023FDF7E9F834A3D3E9002306460F467F
:1033000020462946FDF7E0F802460B46304639468E
:10331000FCF724FF0B9A354B00241344D3E9002318
:10332000FCF71CFF82460A988B46FDF763F80646B9
:103330000F460B9A2E4B1344D3E900895246DDE920
:1033400006015B46FCF70AFF42464B46FCF706FFC8
:1033500032463B46FCF702FF32463B4620460D46CE
:10336000FCF7FAFE42464B46FCF7F6FEDDE9062383
:10337000FCF7F2FE02460B46504659461CE6002476
:103380008AE60126A0E600BFEF4E454A287ECA3FE6
:1033900065DBC9934A86CD3F01411DA96074D13FC9
:1033A0004D268F515555D53FFFAB6FDBB66DDB3FDB
:1033B000033333333333E33F000000E009C7EE3F0C
:1033C000FD033ADC09C7EE3FF5015B14E02F3EBE7A
:1033D0000000F07F000040438E98030079B60B0098
:1033E000803B00080000F03F00000840603B000800
:1033F000703B00089AA3D3E9002330463946FCF716
:10340000ADFE4246CDE900014B4620462946FCF779
:10341000A3FE02460B46DDE90001FDF7E5FA0028B0
:103420007FF40CAEA04B22E0A04C21F00043A3425D
:1034300019D99F4B0B44034309D0DDE90201002257
:103440000023FDF7B3FA003818BF012027E54246F4
:103450004B46FCF781FE32463B46FDF7BBFA00289F
:10346000EBD1944B03E0944A934240F2E1804FF455
:10347000801A1B15A3F2FE334AFA03FADA44CAF3A0
:103480000A518E48A1F2FF31084100EA0A03CAF34B
:10349000130AC1F114014AF4801A40464AFA01FAAB
:1034A000BBF1000F49464FF00002B8BFCAF1000A55
:1034B000FCF752FE80468946002432463B46404691
:1034C0004946FCF74BFE68A3D3E9002320460D468E
:1034D000FCF7FAFF42464B46CDE90001204629465B
:1034E000FCF73AFE02460B4630463946FCF734FEFE
:1034F0005FA3D3E90023FCF7E7FF5FA3D3E9002331
:103500008046894620462946FCF7DEFF02460B46E8
:1035100040464946FCF722FE04460D4602460B464D
:10352000DDE90001FCF71AFEDDE90023804689464B
:10353000FCF712FE02460B4620462946FCF70CFE1D
:10354000424606460F464B4640464946FCF7BCFFFE
:103550004BA3D3E9002304460D46FCF7B5FF4AA36D
:10356000D3E90023FCF7F8FD22462B46FCF7ACFF1D
:1035700047A3D3E90023FCF7F1FD22462B46FCF7D5
:10358000A3FF45A3D3E90023FCF7E6FD22462B4623
:10359000FCF79AFF42A3D3E90023FCF7DFFD2246A4
:1035A0002B46FCF791FF02460B4640464946FCF786
:1035B000D3FD04460D4602460B4640464946FCF7FD
:1035C00083FF0022CDE900014FF0804320462946C9
:1035D000FCF7C2FD02460B46DDE90001FDF79EF84F
:1035E000324604460D463B4640464946FCF76CFFD2
:1035F00032463B46FCF7B2FD02460B4620462946C2
:10360000FCF7AAFD42464B46FCF7A6FD02460B46D8
:1036100000202B49FCF7A0FD01EB0A54B4F5801FF4
:1036200009DA524600F054F8DDE90223FFF789BBBE
:10363000DDF810A040E72146F6E700202049FFF71B
:1036400035BBDDE90001FFF731BB50465946FFF7B6
:103650002DBB0C46FFF787BB0024FFF769BB00BFFB
:10366000FE822B654715973C00000000432EE63F85
:10367000EF39FAFE422EE63F396CA80C615C20BEA1
:10368000D0A4BE726937663EF16BD2C541BDBB3E68
:103690002CDE25AF6A56113F93BDBE166CC1663F46
:1036A0003E5555555555C53F00009040FFCB9040C5
:1036B00000346F3F00CC90400000E03F0000F0FF7E
:1036C0000000F03F21F00043194670470000000061
:1036D0002DE9F0481646C1F30A5283468C460B4644
:1036E00082B921F00043034335D02D4B0022FCF773
:1036F000EBFE2C4B83469E428C460DDA24A3D3E985
:10370000002319E040F2FF77BA4209D10246FCF7E4
:1037100025FD83468C461EE00B46C1F30A52363A1D
:103720004CF250318E420ADD1BA3D3E900236546DB
:1037300063F31E0529461C48FCF7C6FEE9E740F284
:10374000FE7132448A42EFDC002A08DD6FF31E531B
:1037500043EA0255AC4658466146BDE8F08812F18E
:10376000350F09DA0CF0004343F0D27141F4B73160
:103770000E4841F01F01C1E736326FF31E5343EA92
:103780000255584629460022094BD5E7AFF3008081
:1037900059F3F8C21F6EA5019C7500883CE4377E82
:1037A00000005043B03CFFFF9C75008859F3F8C2FD
:1037B0000000903C70B504460D461646FEF752FDDB
:1037C00029460660204670BD13B5044619461046CA
:1037D0000CB103F10043CDE90023DDE90023FCF740
:1037E00073FE222202B0BDE81040FFF7E3BF0022C3
:1037F0004FF08053FFF7E8BF00224FF0E043FFF7A0
:10380000E3BF0000654A2DE9F84F8A4306460F469C
:103810000B4604460ED10246FCF756FE02460B4606
:1038200030463946FCF79AFC06460F463046394684
:10383000BDE8F88F00290CDC21F000420243F5D0EE
:1038400089B10246FCF788FC02460B46FCF766FF8E
:10385000EAE70A1515D1002109E0E30A153A6405E3
:10386000002BFAD0F7E70A46FAE75B000131D802ED
:10387000FBD5481E121AC1F1200024FA00F00343C0
:103880008C400027A2F2FF381621D2074FF4001017
:103890003A46C3F3130343F480135CBF5B0003EBAE
:1038A000D4734FEA430358BF640003EBD4734FEA69
:1038B0006808640015189D42DEBF2A185B1B3F187C
:1038C000E50F013905EB43034FEA44044FEA50008A
:1038D000F0D10D4620264FF00040934200EB010C42
:1038E00002DC13D1A44511D8BCF1000F0CEB000190
:1038F0003EDA00293CDB02F1010E9B1A7246A44518
:1039000088BF03F1FF33A4EB0C0405444FEAD47CD9
:10391000013E0CEB43034FEA44044FEA5000DCD174
:103920001C431AD01E4CDFF87C90D4E90001D9E981
:103930000023FCF711FCD4E900AB02460B465046CD
:103940005946FDF73DF840B1D4E90001D9E900231B
:10395000B5F1FF3F0ED1354601377B1003F17F53A0
:1039600003F5001303EB08516B0843EAC7705BE7EC
:103970009646C2E7FCF7F2FBD4E900AB02460B46E1
:1039800050465946FDF712F820B1AB1C08BF01376D
:103990000235E2E76B1C23F00105DEE70000F07F53
:1039A000983B0008903B0008F8B500BFF8BC08BC85
:1039B0009E467047F8B500BFF8BC08BC9E467047ED
:1039C0000D0A0D0009544D31363338202B204C455B
:1039D000442026204B45595320626F617264200DAC
:1039E0000009544D31363338202B204C45442038C3
:1039F000204B45595320007625642E25642E2564DE
:103A0000200D0A00094C45442026204B45595320DF
:103A1000646576656C6F706D656E7420626F61723F
:103A2000640D000973746D3332663130336338745A
:103A3000360D0031343A31363A3538004D6179204F
:103A400031392032303235000925732C202573207E
:103A50000D0A0009666F722064656275673A20502E
:103A600041322C2055415254322C20393630300D01
:103A700000544D313633385F496E6974202D204F24
:103A80006B2E0D00546573743A20302031203220A3
:103A90003320342035203620370D00706F733D25DC
:103AA00064206467743D2532643B20202000546507
:103AB00073743A203820392061206220632064200A
:103AC0006520660D00546573743A20626C616E6BFC
:103AD000202E205F202D205E2066206520640D00B2
:103AE00025336C7520002025642000232D302B20E9
:103AF00000686C4C006566674546470030313233DC
:103B00003435363738394142434445460030313246
:103B100033343536373839616263646566000000D6
:103B20000000010203040000000000000000010288
:103B30000304060708090102020304050607080931
:103B40000A0B0C0D0E0F101000FF3F065B4F666D49
:103B50007D077F6F777C395E7971014008800000B6
:103B6000000000000000000006D0CF43EBFD4C3EFB
:103B700000000000000000000000004003B8E23F29
:103B8000000000000000F03F000000000000F83FCF
:103B900059F3F8C21F6EA501000000000000F03FBD
:043BA00035010008E3
:043BA4001101000803
:103BA80001000000A85EBC0000127A0001000000BD
:103BB800100000000000000003000000DC000020EE
:103BC8002400002000000000DC0000204401002048
:103BD800AC01002000000000000000000000000010
:103BE80000000000000000000000000000000000CD
:103BF80000000000000000000000000000000000BD
:103C080000000000000000000000000000000000AC
:0400000508000F15CB
:00000001FF
